:020000040800F2
:100000000000032035770008B1070008B907000891
:10001000C1070008C9070008D10700080000000058
:1000200000000000000000000000000081730008D4
:10003000D90700080000000011760008096A0008CE
:100040008D7700088D7700088D7700088D77000880
:100050008D7700088D770008E7070008F50700088E
:100060008D7700088D770008050800088D77000857
:100070008D7700088D7700088D7700088D77000850
:100080008D7700088D7700088D7700088D77000840
:100090008D7700088D7700088D7700088D77000830
:1000A0008D770008290800088D7700088D770008F3
:1000B0008D7700088D7700088D7700088D77000810
:1000C0008D7700088D7700088D7700088D77000800
:1000D0008D7700088D7700088D7700088D770008F0
:1000E0008D7700088D7700088D7700088D770008E0
:1000F0008D7700088D7700088D7700088D770008D0
:100100008D7700088D7700088D7700088D770008BF
:100110008D7700088D7700088D7700088D770008AF
:100120008D7700088D7700088D7700088D7700089F
:0C0130008D7700088D7700088D7700089F
:1001400001F0FF01102A2BDB10F0070F08D010F888
:10015000013B013A8B422DD010F0070F42B3F6D18C
:10016000F0B441EA012141EA014122F007047FF0A5
:1001700000070023F0E80256083C85EA010586EAFC
:10018000010685FA47F5A3FA87F586FA47F6A5FA38
:1001900087F68EB9EED1F0BC01F0FF0102F0070244
:1001A00032B110F8013B013A83EA010313B1F8D1EF
:1001B0000020704701387047002D06BF35460338D0
:1001C000073815F0010F07D1013015F4807F02BF09
:1001D000013015F4C03F0130F0BC0138704700BF5A
:1001E00053B94AB9002908BF00281CBF4FF0FF319E
:1001F0004FF0FF3000F00CB8ADF1080C6DE904CE03
:1002000008F06EFADDF804E0DDE9022304B070477F
:10021000704700BF0348044B834202D0034B03B135
:100220001847704790000020900000200000000058
:100230000548064B1B1AD90F01EBA301491002D048
:10024000034B03B118477047900000209000002036
:100250000000000010B5064C237843B9FFF7DAFF21
:10026000044B13B10448AFF300800123237010BD89
:100270009000002000000000D889000808B5054B58
:100280001BB105490548AFF30080BDE80840FFF702
:10029000CFBF00BF0000000094000020D8890008F4
:1002A00080B485B000AF78604FF0B043DA6C4FF0A7
:1002B000B0417B681343CB644FF0B043DA6C7B688A
:1002C0001340FB60FB6800BF1437BD465DF8047B3C
:1002D0007047000080B584B000AFF860B9607A6004
:1002E0007B689AB26423B968034802F07DFD7B689D
:1002F00018461037BD4680BDAC00002080B500AF69
:1003000002F092FC00F06AF800F0CCF800F034F94A
:1003100000F0E6F806F0B8FB214806F0B0FC034612
:10032000204A1360204806F0AAFC03461F4A1360C7
:100330001F4806F0A4FC03461E4A13601E4A002113
:100340001E4806F0F1FB03461D4A13601D4A0021BA
:100350001D4806F0E9FB03461C4A13601C4A0021B5
:100360001C4806F0E1FB03461B4A1360002000F026
:1003700001FB012000F0FEFA022000F0FBFA01214F
:10038000002000F031FB0121012000F02DFB0121B4
:10039000022000F029FB06F09DFB00BFFDE700BF37
:1003A000AC8C000848010020BC8C00084C010020E7
:1003B000CC8C000850010020888C0008A1060008A1
:1003C00040010020DC8C0008890500085401002051
:1003D000008D0008150600085801002080B59AB06D
:1003E00000AF07F1200348220021184607F098FCCF
:1003F0003B1D00221A605A609A60DA601A615A61E5
:100400009A61274B1B6823F4C063254A43F40073A9
:100410001360234B1B6803F4C0633B603B680323FA
:100420003B624FF480337B624FF48073FB62402366
:100430003B630223FB6403233B6510237B65082396
:10044000BB654FF40033FB654FF000537B664FF004
:1004500000733B6607F12003184600F0B7FE034621
:10046000002B01D000F09EF96F237B600323BB605B
:100470000023FB6000233B6100237B618023BB6181
:100480000023FB613B1D0321184601F013FA0346CC
:10049000002B01D000F086F900BF6837BD4680BD53
:1004A0000004005880B594B000AF3B4650220021B4
:1004B000184607F035FC4FF400533B600023BB6443
:1004C0000023FB643B46184601F063FE0346002B05
:1004D00001D000F067F900BF5037BD4680BD000075
:1004E00080B500AF224B234A1A60214B4FF4E13212
:1004F0005A601F4B00229A601D4B0022DA601C4B91
:1005000000221A611A4B0C225A61194B00229A617F
:10051000174B0022DA61164B00221A62144B00229C
:100520005A62134B00229A62114802F00DFC0346F6
:10053000002B01D000F036F900210D4803F06EF9D0
:100540000346002B01D000F02DF90021084803F0EC
:10055000A3F90346002B01D000F024F9044803F06E
:1005600024F90346002B01D000F01CF900BF80BD28
:10057000AC0000200038014080B500AF0220FFF73A
:100580008FFE00BF80BD000080B584B000AF7860F2
:100590001B4B1B684FF0FF31184606F0F5FB19485E
:1005A00007F0E0FA642006F050FB174B1B684FF091
:1005B000FF31184606F0E8FB144807F0D3FA144B55
:1005C0001B68BB600023FB6003E000BFFB680133D6
:1005D000FB60FB68632BF8DDBB680133BB600C4A32
:1005E000BB681360084B1B68184606F017FC044BE9
:1005F0001B68184606F012FC012006F026FBC7E730
:100600004C010020288A000850010020588A000868
:100610005C01002080B584B000AF78601B4B1B6884
:100620004FF0FF31184606F0AFFB194807F09AFA71
:10063000642006F00AFB174B1B684FF0FF31184689
:1006400006F0A2FB144807F08DFA144B1B68BB6040
:100650000023FB6003E000BFFB680133FB60FB6825
:10066000632BF8DDBB68013BBB600C4ABB681360C1
:10067000084B1B68184606F0D1FB044B1B68184654
:1006800006F0CCFB012006F0E0FAC7E74C010020A1
:10069000808A000850010020B08A00085C01002018
:1006A00080B584B000AF7860264807F05BFA00BFE1
:1006B000254B1B78DBB2002BFAD0244807F052FA06
:1006C0004FF4FA7002F0FCFA214807F04BFA214887
:1006D00007F048FA204807F045FA1E4807F042FAAA
:1006E0001423BB60042007F053F80346FB60FB684B
:1006F0001E221A60194807F035FA1949194807F0FF
:10070000C9F91949194807F0C5F9F968184807F0F7
:10071000C1F907F108031946164807F0BBF90D485F
:1007200007F020FAF86807F03BF8134B1B681946EE
:10073000124807F0AFF94FF4FA7006F086FA00BFDE
:10074000F3E700BFD88A000844010020F08A0008BF
:10075000188B00081C8B0008488B0008748B00085D
:1007600008000020A48B000860010020C88B00084E
:10077000EC8B0008108C00085C010020348C000811
:1007800080B582B000AF78607B681B68044A9342F2
:1007900001D102F069FA00BF0837BD4680BD00BF35
:1007A0000044014080B400AF72B600BF00BFFDE757
:1007B00080B400AF00BFFDE780B400AF00BFFDE72D
:1007C00080B400AF00BFFDE780B400AF00BFFDE71D
:1007D00080B400AF00BFFDE780B400AF00BFBD46EE
:1007E0005DF8047B704780B500AF012002F0FAF895
:1007F00000BF80BD80B500AF022002F0F3F800BF5B
:1008000080BD000080B500AF054B01221A70202189
:10081000044802F0CDF8102002F0E4F800BF80BDDB
:10082000440100200004004880B500AF024803F0F6
:10083000CFFA00BF80BD00BF6C01002080B485B03E
:1008400000AF78604FF0B043DA6C4FF0B0417B6896
:100850001343CB644FF0B043DA6C7B681340FB600A
:10086000FB6800BF1437BD465DF8047B704780B459
:1008700085B000AF78604FF0B0431A6E4FF0B041D2
:100880007B6813430B664FF0B0431A6E7B681340CE
:10089000FB60FB6800BF1437BD465DF8047B704702
:1008A00080B500AF00220F216FF0010002F094F933
:1008B00000BF80BD80B59CB000AF786007F15C03DD
:1008C00000221A605A609A60DA601A6107F10C031C
:1008D00050220021184607F023FA7B681B68164A4D
:1008E000934224D10123FB6000237B6207F10C03B8
:1008F000184601F04EFC0346002B01D0FFF752FFD3
:100900004FF48040FFF7B3FF0220FFF797FFC023AB
:10091000FB6502233B6600237B660023BB6607233F
:10092000FB6607F15C031946044801F0B9FE00BFFD
:100930007037BD4680BD00BF00380140000400484C
:1009400080B485B000AF78604FF0B043DA6C4FF000
:10095000B0417B681343CB644FF0B043DA6C7B68E3
:100960001340FB60FB6800BF1437BD465DF8047B95
:100970007047000080B588B000AF0346FB7107F1F7
:100980000C0300221A605A609A60DA601A61022031
:10099000FFF7D6FFFB79124A32F81330FB600123D0
:1009A0003B6100237B610223BB61FB790D4A52F856
:1009B000233007F10C021146184601F071FEFB7955
:1009C000084A52F82300FB79054A32F81330002216
:1009D000194601F0D5FF00BF2037BD4680BD00BFDE
:1009E000248D00080C00002080B588B000AF0346BD
:1009F0000A46FB711346BB7107F10C0300221A6013
:100A00005A609A60DA601A61FB79002B03D10420E6
:100A1000FFF796FF0CE0FB79012B03D10820FFF7CD
:100A20008FFF05E0FB79022B02D10820FFF788FF3A
:100A3000BB79002B17D1FB79204A32F81330FB60C9
:100A400000233B6101237B610223BB61FB791C4ACC
:100A500052F8233007F10C021146184601F020FE2F
:100A6000012002F02DF9BB79012B23D1FB79134A28
:100A700032F81330FB6001237B614FF404133B61B8
:100A8000FB790F4A52F8233007F10C021146184641
:100A900001F006FEFB790B4AD35C5BB200220F210A
:100AA000184602F099F8FB79064AD35C5BB2184607
:100AB00002F0ACF800BF2037BD4680BD2C8D000889
:100AC00018000020348D000880B400AF4FF0B04310
:100AD0001B6803F48013B3F5801F01D1012300E0EC
:100AE00000231846BD465DF8047B704780B400AF14
:100AF0004FF0B0431B684FF0B04243F480331360B3
:100B000000BFBD465DF8047B704780B400AF4FF076
:100B1000B0431B684FF0B04223F48033136000BF32
:100B2000BD465DF8047B704780B400AF4FF0B04322
:100B30001B6803F40033B3F5003F01D1012300E04B
:100B400000231846BD465DF8047B704780B400AFB3
:100B50004FF0B0431B684FF0B04243F48073136012
:100B600000BFBD465DF8047B704780B400AF4FF016
:100B7000B0431B684FF0B04223F48073136000BF92
:100B8000BD465DF8047B704780B400AF4FF0B043C2
:100B90001B6803F48063B3F5806F01D1012300E08B
:100BA00000231846BD465DF8047B704780B483B0CF
:100BB00000AF78604FF0B0435B6823F0FE427B6883
:100BC0001B064FF0B04113434B6000BF0C37BD46CE
:100BD0005DF8047B704780B400AF4FF0B043D3F8AA
:100BE00098304FF0B04243F00103C2F8983000BF94
:100BF000BD465DF8047B704780B400AF4FF0B04352
:100C0000D3F898304FF0B04223F00103C2F8983087
:100C100000BFBD465DF8047B704780B400AF4FF065
:100C2000B043D3F8983003F00203022B01D1012323
:100C300000E000231846BD465DF8047B704780B491
:100C400000AF4FF0B043D3F890304FF0B04243F0D4
:100C50000103C2F8903000BFBD465DF8047B7047C9
:100C600080B400AF4FF0B043D3F890304FF0B042B3
:100C700023F00103C2F8903000BFBD465DF8047B4D
:100C8000704780B400AF4FF0B043D3F890304FF0CE
:100C9000B04243F00403C2F8903000BFBD465DF897
:100CA000047B704780B400AF4FF0B043D3F890306E
:100CB0004FF0B04223F00403C2F8903000BFBD46AD
:100CC0005DF8047B704780B400AF4FF0B043D3F8B9
:100CD000903003F00203022B01D1012300E0002336
:100CE0001846BD465DF8047B704780B400AF4FF0F6
:100CF000B043D3F894304FF0B04243F00103C2F850
:100D0000943000BFBD465DF8047B704780B400AFEF
:100D10004FF0B043D3F894304FF0B04223F00103CA
:100D2000C2F8943000BFBD465DF8047B704780B4C4
:100D300000AF4FF0B043D3F8943003F00203022B1E
:100D400001D1012300E000231846BD465DF8047B75
:100D5000704780B400AF4FF0B043D3F894304FF0F9
:100D6000B04243F00403C2F8943000BFBD465DF8C2
:100D7000047B704780B400AF4FF0B043D3F8943099
:100D80004FF0B04223F00403C2F8943000BFBD46D8
:100D90005DF8047B704780B400AF4FF0B043D3F8E8
:100DA000943003F00803082B01D1012300E0002355
:100DB0001846BD465DF8047B704780B483B000AF31
:100DC00078604FF0B043D3F8943023F470627B68BE
:100DD0001B024FF0B0411343C1F8943000BF0C37F1
:100DE000BD465DF8047B704780B400AF4FF0B04360
:100DF0001B684FF0B04243F00103136000BFBD46D3
:100E00005DF8047B704780B400AF4FF0B0431B68BF
:100E10004FF0B04223F00103136000BFBD465DF800
:100E2000047B704780B400AF4FF0B0431B6803F001
:100E30000203022B01D1012300E000231846BD4626
:100E40005DF8047B704780B483B000AF78604FF0EA
:100E5000B0431B6823F0F0024FF0B0417B681343AE
:100E60000B6000BF0C37BD465DF8047B704780B453
:100E700083B000AF4FF0B0431B6803F0F0037B601A
:100E80007B68B02B01D9B0237B607B6818460C3798
:100E9000BD465DF8047B704780B483B000AF7860D6
:100EA0004FF0B0435B6823F47F427B681B024FF036
:100EB000B04113434B6000BF0C37BD465DF8047B67
:100EC000704780B483B000AF78604FF0B0439B6848
:100ED00023F003024FF0B0417B6813438B6000BFE7
:100EE0000C37BD465DF8047B704780B400AF4FF00F
:100EF000B0439B6803F00C031846BD465DF8047BC5
:100F0000704780B483B000AF78604FF0B0439B6807
:100F100023F0F0024FF0B0417B6813438B6000BFB9
:100F20000C37BD465DF8047B704780B483B000AFDA
:100F300078604FF0B043D3F8083123F0F0024FF05F
:100F4000B0417B681343C1F8083100BF0C37BD4680
:100F50005DF8047B704780B483B000AF78604FF0D9
:100F6000B043D3F8083123F00F027B681B094FF020
:100F7000B0411343C1F8083100BF0C37BD465DF8DE
:100F8000047B704780B483B000AF78604FF0B0430B
:100F90009B6823F4E0624FF0B0417B6813438B60A1
:100FA00000BF0C37BD465DF8047B704780B483B04A
:100FB00000AF78604FF0B0439B6823F460524FF06D
:100FC000B0417B6813438B6000BF0C37BD465DF8B2
:100FD000047B704780B400AF4FF0B0439B6803F0D0
:100FE000F0031846BD465DF8047B704780B400AF3F
:100FF0004FF0B043D3F8083103F0F0031846BD4674
:101000005DF8047B704780B400AF4FF0B043D3F875
:1010100008311B0103F0F0031846BD465DF8047B60
:10102000704780B400AF4FF0B0439B6803F4E063B7
:101030001846BD465DF8047B704780B400AF4FF0A2
:10104000B0439B6803F460531846BD465DF8047BCB
:10105000704780B400AF4FF0B0431B684FF0B04210
:1010600043F08073136000BFBD465DF8047B70479A
:1010700080B400AF4FF0B0431B684FF0B04223F094
:101080008073136000BFBD465DF8047B704780B479
:1010900000AF4FF0B0431B6803F00073B3F1007F63
:1010A00001D1012300E000231846BD465DF8047B12
:1010B000704780B400AF4FF0B043DB681B0A03F009
:1010C0007F031846BD465DF8047B704780B400AFCF
:1010D0004FF0B043DB6803F060431846BD465DF84F
:1010E000047B704780B400AF4FF0B043DB6803F07F
:1010F00070031846BD465DF8047B704780B400AFAE
:101100004FF0B043DB6803F003031846BD465DF8BB
:10111000047B704780B400AF4FF0B0439B6803F48A
:101120008033B3F5803F01D1012300E0002318464E
:10113000BD465DF8047B704780B400AF4FF0B0430C
:10114000D3F8083103F40033B3F5003F01D1012394
:1011500000E000231846BD465DF8047B704780B46C
:1011600000AF4FF0B043D3F8083103F48033B3F548
:10117000803F01D1012300E000231846BD465DF801
:10118000047B704780B400AF4FF0B0439B6803F41A
:101190000033B3F5003F01D1012300E000231846DE
:1011A000BD465DF8047B704780B400AF4FF0B0439C
:1011B0009B6803F48023B3F5802F01D1012300E065
:1011C00000231846BD465DF8047B704790B58DB08E
:1011D00000AF78607B68002B01D1012363E37B685B
:1011E0001B6803F02003002B00F08D80FFF77DFECD
:1011F000F862FFF783FFB862FB6A002B05D0FB6A39
:101200000C2B47D1BB6A012B44D17B68DB69002BD7
:1012100001D1012347E37B685C6AFFF728FE0346A0
:101220009C4214D97B685B6A184600F061FD034656
:10123000002B01D0012336E37B685B6A1846FFF779
:1012400002FE7B681B6A1846FFF726FE13E07B68E8
:101250005B6A1846FFF7F7FD7B681B6A1846FFF7C5
:101260001BFE7B685B6A184600F042FD0346002BBC
:1012700001D0012317E300F0C9FC0346A44A136020
:10128000A44B1B68184602F085FC0346002B39D09E
:10129000012308E37B68DB69002B1ED0FFF7A4FD68
:1012A00001F0F6FC786208E001F0F2FC02467B6A8D
:1012B000D31A022B01D90323F5E2FFF7B3FD03464E
:1012C000002BF1D07B685B6A1846FFF7BCFD7B689A
:1012D0001B6A1846FFF7E0FD15E0FFF794FD01F0EB
:1012E000D7FC786208E001F0D3FC02467B6AD31A8F
:1012F000022B01D90323D6E2FFF794FD0346002B0E
:10130000F1D100E000BF7B681B6803F00103002BF4
:1013100047D0FFF7EAFD3862FFF7F0FEF8613B6A5D
:10132000082B05D03B6A0C2B08D1FB69032B05D198
:101330007B685B68002B34D10123B4E27B685B6877
:10134000B3F5803F02D1FFF7D1FB01E0FFF7DDFBF2
:101350007B685B68002B12D001F09AFC786208E091
:1013600001F096FC02467B6AD31A642B01D9032351
:1013700099E2FFF7D9FB0346002BF1D011E001F011
:1013800087FC786208E001F083FC02467B6AD31A8E
:10139000642B01D9032386E2FFF7C6FB0346002B2B
:1013A000F1D17B681B6803F00203002B4CD0FFF7E0
:1013B0009CFDB861FFF7A2FE7861BB69042B05D0E4
:1013C000BB690C2B0ED17B69022B0BD17B68DB68D0
:1013D000002B01D1012366E27B681B691846FFF7E9
:1013E000E5FB31E07B68DB68002B19D0FFF7AEFB33
:1013F00001F04EFC786208E001F04AFC02467B6A8C
:10140000D31A022B01D903234DE2FFF7BDFB03469C
:10141000002BF1D07B681B691846FFF7C7FB13E070
:10142000FFF7A3FB01F034FC786208E001F030FC28
:1014300002467B6AD31A022B01D9032333E2FFF75A
:10144000A3FB0346002BF1D17B681B6803F0080364
:10145000002B06D17B681B6803F01003002B00F003
:10146000A3807B685B69002B76D07B681B6803F0E8
:101470001003002B46D0FFF75AFC0346002B13D174
:10148000FFF733FC01F004FC786208E001F000FC97
:1014900002467B6AD31A022B01D9032303E2FFF72A
:1014A00046FC0346002BF1D0FFF753FC01F0F0FBA4
:1014B000786208E001F0ECFB02467B6AD31A032B4A
:1014C00001D90323EFE1FFF766FC0346002BF1D0BF
:1014D0007B689B691846FFF770FCFFF717FC01F06B
:1014E000D7FB786208E001F0D3FB02467B6AD31A8F
:1014F000022B01D90323D6E1FFF719FC0346002B89
:10150000F1D151E0FFF7F1FB01F0C2FB78620CE092
:101510002C0000202400002001F0BAFB02467B6A68
:10152000D31A022B01D90323BDE1FFF700FC0346C8
:10153000002BF1D0FFF71EFC08E001F0A9FB0246EA
:101540007B6AD31A032B01D90323ACE1FFF723FCF9
:101550000346002BF1D127E0FFF70CFC01F098FBCC
:10156000786208E001F094FB02467B6AD31A032BF1
:1015700001D9032397E1FFF70EFC0346002BF1D1BD
:10158000FFF7C4FB01F084FB786208E001F080FB08
:1015900002467B6AD31A022B01D9032383E1FFF7AA
:1015A000C6FB0346002BF1D17B681B6803F00403E4
:1015B000002B5BD0A74B1B6803F48073002B14D166
:1015C00001F034FA01F064FB786208E001F060FB9E
:1015D00002467B6AD31A022B01D9032363E19D4B98
:1015E0001B6803F48073002BF0D07B689B68012B91
:1015F00002D1FFF724FB0CE07B689B68052B04D12C
:10160000FFF73FFBFFF71BFB03E0FFF729FBFFF7AB
:1016100049FB7B689B68002B14D001F039FB786292
:101620000AE001F035FB02467B6AD31A41F28832A8
:10163000934201D9032336E1FFF745FB0346002B14
:10164000EFD013E001F024FB78620AE001F020FB08
:1016500002467B6AD31A41F28832934201D90323AE
:1016600021E1FFF730FB0346002BEFD17B681B68BD
:1016700003F04003002B2CD07B689B6A002B14D016
:10168000FFF7A9FA01F004FB786208E001F000FB23
:1016900002467B6AD31A022B01D9032303E1FFF729
:1016A000BCFA0346002BF1D013E0FFF7A5FA01F0D6
:1016B000EFFA786208E001F0EBFA02467B6AD31A8F
:1016C000022B01D90323EEE0FFF7A7FA0346002B14
:1016D000F1D17B68DB6A002B00F0E480FFF705FCAA
:1016E00038614FF0B043DB68FB607B68DB6A022B3C
:1016F00040F0B480FB6803F003027B681B6B9A42E6
:1017000023D1FB6803F070027B685B6B9A421CD1AB
:10171000FB681B0A03F07F027B689B6B9A4214D123
:10172000FB6803F478127B68DB6B9A420DD1FB688F
:1017300003F060627B681B6C9A4206D1FB6803F081
:1017400060427B685B6C9A425DD03B690C2B58D041
:101750004FF0B0431B6803F08063002B01D00123DE
:10176000A1E0FFF785FC01F093FA786208E001F050
:101770008FFA02467B6AD31A022B01D9032392E027
:101780004FF0B0431B6803F00073002BEFD14FF014
:10179000B043DA68304B13407A68116B7A68526B49
:1017A00011437A68926B120211437A68D26B11432B
:1017B0007A68126C11437A68526C0A434FF0B04158
:1017C0001343CB60FFF745FC4FF0B043DB684FF0AD
:1017D000B04243F08053D36001F05AFA786208E0D7
:1017E00001F056FA02467B6AD31A022B01D9032371
:1017F00059E04FF0B0431B6803F00073002BEFD0AB
:1018000050E001234FE04FF0B0431B6803F000733A
:10181000002B47D1FFF71DFC4FF0B043DB684FF0C2
:10182000B04243F08053D36001F032FA786208E0AE
:1018300001F02EFA02467B6AD31A022B01D9032348
:1018400031E04FF0B0431B6803F00073002BEFD082
:1018500028E000BF000400588C80C1113B690C2BAC
:101860001ED0FFF705FC01F013FA786208E001F0E2
:101870000FFA02467B6AD31A022B01D9032312E026
:101880004FF0B0431B6803F00073002BEFD14FF013
:10189000B043DA684FF0B041054B1340CB6001E034
:1018A000012300E0002318463437BD4690BD00BF39
:1018B000FCFFFEEE80B584B000AF786039607B68D5
:1018C000002B01D101232DE1984B1B6803F0070386
:1018D0003A689A421BD9954B1B6823F0070293493B
:1018E0003B6813430B6001F0D3F9F86008E001F0A6
:1018F000CFF90246FB68D31A022B01D9032311E169
:101900008A4B1B6803F007033A689A42EFD17B6861
:101910001B6803F00203002B16D07B689B681846F7
:10192000FFF7EFFA01F0B4F9F86008E001F0B0F960
:101930000246FB68D31A022B01D90323F2E0FFF71A
:10194000E9FB0346002BF1D07B681B6803F0200302
:10195000002B16D07B685B691846FFF7E6FA01F0AA
:1019600097F9F86008E001F093F90246FB68D31A92
:10197000022B01D90323D5E0FFF7DEFB0346002B42
:10198000F1D07B681B6803F04003002B16D07B6806
:101990009B691846FFF7DFFA01F07AF9F86008E072
:1019A00001F076F90246FB68D31A022B01D9032312
:1019B000B8E0FFF7D4FB0346002BF1D07B681B682F
:1019C00003F00403002B16D07B68DB681846FFF792
:1019D000D9FA01F05DF9F86008E001F059F9024622
:1019E000FB68D31A022B01D903239BE0FFF7CAFB44
:1019F0000346002BF1D07B681B6803F00803002B23
:101A000017D07B681B69DB001846FFF7CFFA01F09F
:101A10003FF9F86008E001F03BF90246FB68D31A91
:101A2000022B01D903237DE0FFF7BEFB0346002B09
:101A3000F1D07B681B6803F00103002B43D07B6867
:101A40005B68022B06D1FFF76FF80346002B1ED10F
:101A5000012367E07B685B68032B06D1FFF717FB68
:101A60000346002B13D101235CE07B685B68002BED
:101A700006D1FFF7D7F90346002B08D1012351E027
:101A8000FFF782F80346002B01D101234AE07B686F
:101A90005B681846FFF715FA01F0FAF8F8600AE0FB
:101AA00001F0F6F80246FB68D31A41F288329342FD
:101AB00001D9032336E0FFF718FA02467B685B681A
:101AC0009B009A42ECD1194B1B6803F007033A685C
:101AD0009A421BD2154B1B6823F0070213493B683F
:101AE00013430B6001F0D4F8F86008E001F0D0F87F
:101AF0000246FB68D31A022B01D9032312E00B4BD9
:101B00001B6803F007033A689A42EFD100F07EF8B1
:101B10000346074A136001F0C7F80346184602F06F
:101B200039F8034618461037BD4680BD00400058BE
:101B30002C00002090B585B000AFFFF7D6F9786093
:101B40007B68002B0AD1FFF792F903461B0903F0CB
:101B50000F032B4A52F82330FB604BE07B68042BC9
:101B600002D1284BFB6045E07B68082B0AD1FEF7C9
:101B7000ABFF0346012B02D1224BFB603AE0224B24
:101B8000FB6037E0FFF7BAFA38603B68022B03D0FE
:101B90003B68032B03D00DE01A4BBB6015E0FEF74A
:101BA00093FF0346012B02D1164BBB600DE0164B91
:101BB000BB600AE0FFF75BF903461B0903F00F0364
:101BC0000F4A52F82330BB6000BFFFF772FA02469B
:101BD000BB6803FB02F4FFF785FA03461B090133D8
:101BE000B4FBF3F4FFF772FA03465B0F0133B4FB67
:101BF000F3F3FB60FB6818461437BD4690BD00BF89
:101C0000C08D00080024F4000048E80198B500AF3A
:101C1000FFF790FF0446FFF7DDF903461B0903F0C9
:101C20000F03034A52F82330B4FBF3F3184698BD70
:101C3000608D000898B500AFFFF7E8FF0446FFF796
:101C4000F0F903461B0A03F00703044A52F8233055
:101C500003F01F0324FA03F3184698BDA08D000873
:101C600098B500AFFFF7D2FF0446FFF7E6F9034649
:101C7000DB0A03F00703044A52F8233003F01F0382
:101C800024FA03F3184698BDA08D000880B582B0F1
:101C900000AF786039607B686F221A60FFF725F922
:101CA00002467B685A60FFF795F902467B689A60A6
:101CB000FFF7B7F902467B68DA60FFF7BEF9024624
:101CC0007B681A61FFF792F902467B685A61FFF759
:101CD0009AF902467B689A61044B1B6803F007027D
:101CE0003B681A6000BF0837BD4680BD0040005801
:101CF00090B585B000AF78607B68B02B03D9154BE9
:101D0000DB6AFB6007E07B681B0903F00F03114AE5
:101D100052F82330FB60FFF776F903461B0903F006
:101D20000F030D4A52F82330FA68B2FBF3F3BB609D
:101D3000BB680A4AA2FB03239C0C00F087FE034603
:101D40001946204600F00CF8034618461437BD46E5
:101D500090BD00BFC08D0008608D000883DE1B436E
:101D600090B593B000AF78603960374B07F1280425
:101D70000FCB84E80F00354A07F11C0307CA83E83C
:101D80000700334B07F10C040FCB84E80F0000234E
:101D90007B643B68B3F5007F1AD100233B6413E0FA
:101DA0003B6C9B0048333B4453F8203C7A689A4292
:101DB00007D83B6C9B0048333B4453F83C3C7B6466
:101DC00020E03B6C01333B643B6C032BE8D919E00A
:101DD0000023FB6313E0FB6B9B0048333B4453F849
:101DE0002C3C7A689A4207D8FB6B9B0048333B44F3
:101DF00053F83C3C7B6405E0FB6B0133FB63FB6BFE
:101E0000022BE8D9134B1B6823F0070211497B6CA6
:101E100013430B6000F03CFFB86308E000F038FFAC
:101E20000246BB6BD31A022B01D9032307E0094BEF
:101E30001B6803F007037A6C9A42EFD1002318461F
:101E40004C37BD4690BD00BF448C0008548C000840
:101E5000608C00080040005880B400AF4FF0B043E1
:101E6000D3F8903003F00103012B01D1012300E0EE
:101E700000231846BD465DF8047B704780B400AF70
:101E80004FF0B043D3F8903003F00203022B01D19E
:101E9000012300E000231846BD465DF8047B70472F
:101EA00080B483B000AF78604FF0B043D3F8943083
:101EB00023F440424FF0B0417B681343C1F89430A3
:101EC00000BF0C37BD465DF8047B704780B483B01B
:101ED00000AF78604FF0B0435B6A23F003024FF02D
:101EE000B0417B6813434B6200BF0C37BD465DF8C1
:101EF000047B704780B483B000AF78604FF0B0438C
:101F00005B6A23F030024FF0B0417B6813434B62B1
:101F100000BF0C37BD465DF8047B704780B483B0CA
:101F200000AF78604FF0B043D3F8883023F003025D
:101F30004FF0B0417B681343C1F8883000BF0C37C5
:101F4000BD465DF8047B704780B483B000AF786015
:101F50004FF0B043D3F8883023F440624FF0B041E3
:101F60007B681343C1F8883000BF0C37BD465DF86D
:101F7000047B704780B483B000AF78604FF0B0430B
:101F8000D3F888207B681B0903F47F23DB431A40C6
:101F90007B681B0103F47F234FF0B0411343C1F86A
:101FA000883000BF0C37BD465DF8047B704780B4B5
:101FB00083B000AF78604FF0B043D3F888207B68DF
:101FC0001B0C1B04DB431A407B681B044FF0B04121
:101FD0001343C1F8883000BF0C37BD465DF8047B61
:101FE000704780B483B000AF78604FF0B043D3F84F
:101FF000883023F440024FF0B0417B681343C1F8AE
:10200000883000BF0C37BD465DF8047B704780B454
:1020100083B000AF78604FF0B043D3F8883023F03E
:1020200040424FF0B0417B681343C1F8883000BF95
:102030000C37BD465DF8047B704780B483B000AFB9
:1020400078604FF0B043D3F8883023F040624FF00F
:10205000B0417B681343C1F8883000BF0C37BD46E0
:102060005DF8047B704780B582B000AF7860786817
:10207000FFF7E3FF00BF0837BD4680BD80B483B0E3
:1020800000AF78604FF0B043D3F8883023F040526F
:102090004FF0B0417B681343C1F8883000BF0C3764
:1020A000BD465DF8047B704780B483B000AF7860B4
:1020B0004FF0B043D3F8903023F440724FF0B0416A
:1020C0007B681343C1F8903000BF0C37BD465DF804
:1020D000047B704780B400AF4FF0B043D3F890302A
:1020E00003F440731846BD465DF8047B704780B426
:1020F00000AF4FF0B043D3F890304FF0B04243F40C
:102100008033C2F8903000BFBD465DF8047B704755
:1021100080B400AF4FF0B043D3F890304FF0B042EE
:1021200023F48033C2F8903000BFBD465DF8047BD5
:10213000704780B400AF4FF0B0431B684FF0B0421F
:1021400043F08063136000BFBD465DF8047B7047B9
:1021500080B400AF4FF0B0431B684FF0B04223F0A3
:102160008063136000BFBD465DF8047B704780B498
:1021700000AF4FF0B0431B6803F00063B3F1006F92
:1021800001D1012300E000231846BD465DF8047B21
:10219000704780B588B000AF78600023FB770023DC
:1021A000BB777B681B6803F04003002B34D07B684F
:1021B0001B6BB3F5400F21D0B3F5400F1BD8B3F51F
:1021C000000F1DD0B3F5000F15D8002B0BD0B3F5C1
:1021D000800F10D14FF0B043DB684FF0B04243F4B2
:1021E0008033D3600DE07B680433184600F047F974
:1021F0000346FB7705E00123FB7702E000BF00E028
:1022000000BFFB7F002B05D17B681B6B1846FFF7D7
:10221000E8FE01E0FB7FBB777B681B6803F400638B
:10222000002B46D0FFF756FFB8617B681B6CBA697C
:102230009A423CD000F0FAFBBB69002B05D17B68C9
:102240001B6C1846FFF730FF2EE04FF0B043D3F879
:1022500090307B61FFF74BFFFFF75AFF7B6923F458
:1022600040727B681B6C13437B614FF0B0427B690B
:10227000C2F89030FFF7F0FD0346012B14D100F0B7
:1022800007FD38610BE000F003FD02463B69D31AFD
:1022900041F28832934202D90323FB7704E0FFF72F
:1022A000EDFD0346012BEED1FB7FBB7701E0FB7F09
:1022B000BB777B681B6803F00103002B04D07B68AD
:1022C0009B691846FFF72AFE7B681B6803F0020330
:1022D000002B04D07B68DB691846FFF735FE7B686E
:1022E0001B6803F01003002B04D07B689B6A184620
:1022F000FFF75DFE7B681B6803F02003002B04D012
:102300007B68DB6A1846FFF752FE7B681B6803F0A8
:102310000403002B04D07B681B6A1846FFF72AFED3
:102320007B681B6803F00803002B04D07B685B6AA2
:102330001846FFF71FFE7B681B6803F48073002BB1
:1023400022D07B685B6B1846FFF78DFE7B685B6B6A
:10235000B3F1006F07D14FF0B043DB684FF0B042EC
:1023600043F08073D3607B685B6BB3F1806F0BD1FC
:102370007B680433184600F0DDF80346FB77FB7FEB
:10238000002B01D0FB7FBB777B681B6803F40073D5
:10239000002B2BD07B689B6BB3F1804F08D07B6800
:1023A0009B6BB3F1004F03D07B689B6B002B05D177
:1023B0007B689B6B1846FFF72AFE0AE07B689B6BE5
:1023C00023F08053FB600020FFF721FEF868FFF741
:1023D00034FE7B689B6BB3F1C05F07D14FF0B04315
:1023E000DB684FF0B04243F08073D3607B681B68BA
:1023F00003F48063002B22D07B68DB6B1846FFF769
:102400003DFE7B68DB6BB3F1005F07D14FF0B0435B
:10241000DB684FF0B04243F48033D3607B68DB6B02
:10242000B3F1805F0BD17B680433184600F0DDF810
:102430000346FB77FB7F002B01D0FB7FBB777B68DC
:102440001B6803F48053002B04D07B685B6C184638
:10245000FFF726FD7B681B6803F40053002B09D0AF
:102460007B68DB6C1846FFF745FD7B689B6C184664
:10247000FFF72CFDBB7F18462037BD4680BD80B5D9
:1024800084B000AF78600023FB73FFF761FE00F0BB
:10249000FFFBB86009E000F0FBFB0246BB68D31A03
:1024A000022B02D90323FB7304E0FFF760FE03460F
:1024B000002BF0D1FB7B002B37D14FF0B0431B69D1
:1024C00023F4FE427B681B681B024FF0B0411343AC
:1024D0000B614FF0B0431B6923F478127B685B6893
:1024E0004FF0B04113430B61FFF723FE00F0D0FB28
:1024F000B86009E000F0CCFB0246BB68D31A022B9F
:1025000002D90323FB7304E0FFF731FE0346012BDE
:10251000F0D1FB7B002B08D14FF0B0431A697B68E8
:102520001B694FF0B04113430B61FB7B184610371A
:10253000BD4680BD80B584B000AF78600023FB73DA
:10254000FFF706FE00F0A4FBB86009E000F0A0FB76
:102550000246BB68D31A022B02D90323FB7304E0A3
:10256000FFF705FE0346002BF0D1FB7B002B37D194
:102570004FF0B0431B6923F4FE427B681B681B02CB
:102580004FF0B04113430B614FF0B0431B6923F090
:1025900060627B689B684FF0B04113430B61FFF7AB
:1025A000C8FD00F075FBB86009E000F071FB024661
:1025B000BB68D31A022B02D90323FB7304E0FFF795
:1025C000D6FD0346012BF0D1FB7B002B08D14FF049
:1025D000B0431A697B681B694FF0B04113430B612C
:1025E000FB7B18461037BD4680BD80B584B000AF78
:1025F00078600023FB73FFF7ABFD00F049FBB86088
:1026000009E000F045FB0246BB68D31A022B02D951
:102610000323FB7304E0FFF7AAFD0346002BF0D170
:10262000FB7B002B37D14FF0B0431B6923F4FE42F4
:102630007B681B681B024FF0B04113430B614FF0E6
:10264000B0431B6923F060427B68DB684FF0B04108
:1026500013430B61FFF76DFD00F01AFBB86009E052
:1026600000F016FB0246BB68D31A022B02D90323E3
:10267000FB7304E0FFF77BFD0346012BF0D1FB7BEE
:10268000002B08D14FF0B0431A697B681B694FF0EB
:10269000B04113430B61FB7B18461037BD4680BD2C
:1026A00080B487B000AF7860396000237B614CE173
:1026B0003B681A6801217B6901FA03F31340FB6050
:1026C000FB68002B00F03E813B685B6803F003036E
:1026D000012B05D03B685B6803F00303022B30D16C
:1026E0007B689B683B617B695B00032202FA03F312
:1026F000DB433A6913403B613B68DA687B695B0006
:1027000002FA03F33A6913433B617B683A699A60C2
:102710007B685B683B6101227B6902FA03F3DB4360
:102720003A6913403B613B685B681B0903F0010297
:102730007B6902FA03F33A6913433B617B683A69A8
:102740005A603B685B6803F00303032B17D07B6878
:10275000DB683B617B695B00032202FA03F3DB4326
:102760003A6913403B613B689A687B695B0002FAF7
:1027700003F33A6913433B617B683A69DA603B686B
:102780005B6803F00303022B23D17B69DA087B68C3
:10279000083253F822303B617B6903F007039B004A
:1027A0000F2202FA03F3DB433A6913403B613B68B3
:1027B0001A697B6903F007039B0002FA03F33A6985
:1027C00013433B617B69DA087B680832396943F857
:1027D00022107B681B683B617B695B00032202FA65
:1027E00003F3DB433A6913403B613B685B6803F0EA
:1027F00003027B695B0002FA03F33A6913433B610E
:102800007B683A691A603B685B6803F44033002BCD
:1028100000F09880544A7B699B08023352F82330B9
:102820003B617B6903F003039B000F2202FA03F371
:10283000DB433A6913403B617B68B3F1904F19D099
:102840007B684A4A934213D07B68494A93420DD031
:102850007B68484A934207D07B68474A934201D13C
:10286000042308E0072306E0032304E0022302E038
:10287000012300E000237A6902F0030292009340F2
:102880003A6913433B6138497B699B0802333A69D3
:1028900041F82320394B1B683B61FB68DB433A69F5
:1028A00013403B613B685B6803F48013002B03D04B
:1028B0003A69FB6813433B61304A3B6913602F4B15
:1028C0005B683B61FB68DB433A6913403B613B68F3
:1028D0005B6803F40013002B03D03A69FB681343D1
:1028E0003B61264A3B695360244BD3F880303B61FF
:1028F000FB68DB433A6913403B613B685B6803F468
:102900008033002B03D03A69FB6813433B611B4AB9
:102910003B69C2F88030194BD3F884303B61FB68C7
:10292000DB433A6913403B613B685B6803F4003367
:10293000002B03D03A69FB6813433B610F4A3B69A4
:10294000C2F884307B6901337B613B681A687B691C
:1029500022FA03F3002B7FF4ABAE00BF00BF1C379D
:10296000BD465DF8047B704700000140000400484C
:1029700000080048000C00480010004800080058FB
:1029800080B483B000AF78600B467B8013467B70C9
:102990007B78002B03D07A887B689A6102E07A8882
:1029A0007B689A6200BF0C37BD465DF8047B7047B8
:1029B00080B485B000AF78600B467B807B685B6934
:1029C000FB607A88FB6813401A04FB68D9437B8854
:1029D0000B401A437B689A6100BF1437BD465DF80F
:1029E000047B704780B582B000AF0346FB80084B84
:1029F000DA68FB881340002B06D0054AFB88D360B9
:102A0000FB88184600F006F800BF0837BD4680BDB9
:102A10000008005880B483B000AF0346FB8000BFBD
:102A20000C37BD465DF8047B7047000080B400AFF2
:102A3000054B1B68044A43F48073136000BFBD4616
:102A40005DF8047B704700BF0004005880B400AFFD
:102A5000044B1B6803F4C0631846BD465DF8047B55
:102A6000704700BF0004005880B485B000AF7860A4
:102A70007B6803F00703FB600C4BDB68BB60BA6844
:102A80004FF6FF031340BB60FB681A02BB68134399
:102A900043F0BF6343F40033BB60044ABB68D360B8
:102AA00000BF1437BD465DF8047B704700ED00E0C1
:102AB00080B400AF044BDB681B0A03F00703184621
:102AC000BD465DF8047B704700ED00E080B483B044
:102AD00000AF0346FB7197F90730002B0BDBFB7946
:102AE00003F01F02074997F907305B09012000FA3C
:102AF00002F241F8232000BF0C37BD465DF8047B8D
:102B0000704700BF00E100E080B483B000AF03462F
:102B10003960FB7197F90730002B0ADB3B68DAB2AA
:102B20000C4997F907301201D2B20B4483F8002305
:102B30000AE03B68DAB20849FB7903F00F03043B73
:102B40001201D2B20B441A7600BF0C37BD465DF8B5
:102B5000047B704700E100E000ED00E080B489B044
:102B600000AFF860B9607A60FB6803F00703FB61AF
:102B7000FB69C3F10703042B28BF0423BB61FB6976
:102B80000433062B02D9FB69033B00E000237B6181
:102B90004FF0FF32BB6902FA03F3DA43BB681A4015
:102BA0007B699A404FF0FF317B6901FA03F3D94307
:102BB0007B680B40134318462437BD465DF8047B01
:102BC000704780B582B000AF78607868FFF74CFF3F
:102BD00000BF0837BD4680BD80B586B000AF034654
:102BE000B9607A60FB73FFF763FF78617A68B96850
:102BF0007869FFF7B3FF024697F90F301146184680
:102C0000FFF782FF00BF1837BD4680BD80B582B098
:102C100000AF0346FB7197F907301846FFF756FFE0
:102C200000BF0837BD4680BD80B582B000AF00232D
:102C3000FB710C4B1B680B4A43F480731360032039
:102C4000FFF7BFFF0F2000F0A5FF0346002B02D0C7
:102C50000123FB7101E0FDF723FEFB7918460837DD
:102C6000BD4680BD0040005880B400AF064B1B78C5
:102C70001A46064B1B681344044A136000BFBD4646
:102C80005DF8047B704700BF28000020640100202D
:102C900080B400AF034B1B681846BD465DF8047B4B
:102CA000704700BF6401002080B400AF034B1B6875
:102CB0001846BD465DF8047B704700BF2400002025
:102CC00080B584B000AF7860FFF7E2FFB8607B6842
:102CD000FB60FB68B3F1FF3F05D00A4B1B781A4637
:102CE000FB681344FB6000BFFFF7D2FF0246BB68DE
:102CF000D31AFA689A42F7D800BF00BF1037BD4612
:102D000080BD00BF2800002080B483B000AF786091
:102D10004FF0B043D3F888207B68134018460C3737
:102D2000BD465DF8047B704780B483B000AF786027
:102D30004FF0B043D3F888207B68134018460C3717
:102D4000BD465DF8047B704780B582B000AF786007
:102D50007B68002B01D1012342E07B68D3F88830E7
:102D6000002B06D17B68002283F884207868FDF769
:102D7000A1FD7B682422C3F888207B681B681A6841
:102D80007B681B6822F001021A607B689B6A002B3B
:102D900002D0786800F0EAFA786800F0BFF80346DD
:102DA000012B01D101231BE07B681B685A687B68FB
:102DB0001B6822F490425A607B681B689A687B68A3
:102DC0001B6822F02A029A607B681B681A687B687D
:102DD0001B6842F001021A60786800F069FB034644
:102DE00018460837BD4680BD80B58AB002AFF8608E
:102DF000B9603B601346FB80FB68D3F88830202B1A
:102E000040F08680BB68002B02D0FB88002B01D1EC
:102E100001237EE0FB680022C3F89020FB6821229A
:102E2000C3F88820FFF734FF7861FB68FA88A3F8BD
:102E30005420FB68FA88A3F85620FB689B68B3F51A
:102E4000805F08D1FB681B69002B04D10023FB6164
:102E5000BB68BB6103E0BB68FB610023BB613AE078
:102E60003B6800937B6900228021F86800F0CAFB70
:102E70000346002B05D0FB682022C3F888200323DB
:102E800047E0FB69002B0BD1BB691B881A46FB6826
:102E90001B68C2F308029A62BB690233BB6107E098
:102EA000FB691A78FB681B689A62FB690133FB6156
:102EB000FB68D3F8883003F02103212B09D1FB688C
:102EC000B3F856309BB2013B9AB2FB68A3F8562088
:102ED00001E001231DE0FB68B3F856309BB2002BE4
:102EE000BED13B6800937B6900224021F86800F066
:102EF00089FB0346002B05D0FB682022C3F88820FD
:102F0000032306E0FB682022C3F88820002300E0AA
:102F1000022318462037BD4680BD00002DE9B04F82
:102F20008CB000AF7861002387F82A307B699A68FB
:102F30007B691B691A437B695B691A437B69DB699F
:102F40001343FB627B691B681A68AF4B13407A69B5
:102F50001268F96A0B4313607B691B685B6823F492
:102F600040517B69DA687B691B680A435A607B6958
:102F70009B69FB627B691B68A44A934204D07B690E
:102F80001B6AFA6A1343FB627B691B689B6823F028
:102F90006E4323F430637A691268F96A0B439360D5
:102FA0007B691B68DB6A23F00F017B695A6A7B69C6
:102FB0001B680A43DA627B691B68954A934225D1F4
:102FC0000320FFF7A1FE0346032B1BD801A252F8F2
:102FD00023F000BFE52F0008F52F0008ED2F0008B3
:102FE000FD2F0008012387F82B3042E0022387F8E9
:102FF0002B303EE0042387F82B303AE0082387F893
:103000002B3036E0102387F82B3032E07B691B68C9
:103010007E4A93422AD14FF44060FFF785FE034673
:10302000B3F5406F1AD0B3F5406F1BD8B3F5006FFE
:103030000CD0B3F5006F15D8002B03D0B3F5806F1B
:1030400008D00FE0002387F82B3012E0022387F826
:103050002B300EE0042387F82B300AE0082387F892
:103060002B3006E0102387F82B3002E0102387F87E
:103070002B307B691B68654A934240F0978097F834
:103080002B30082B23D801A252F823F0B1300008CE
:10309000CF300008B9300008CF300008BF3000083A
:1030A000CF300008CF300008CF300008C73000080C
:1030B000FEF7C0FD786210E0564B7B620DE0FEF734
:1030C00039FD786209E04FF400437B6205E000239C
:1030D0007B62012387F82A3000BF7B6A002B00F057
:1030E0002B817B695B6A4C4A32F813301A467B6A43
:1030F000B3FBF2F3BB617B695A6813465B00134470
:10310000BA699A4205D37B695B681B03BA699A4224
:1031100003D9012387F82A300EE17B6A0022BB60C5
:10312000FA607B695B6A3C4A32F813309BB200223A
:103130003B607A60D7E90023D7E90201FDF750F838
:1031400002460B46104619464FF000024FF00003AE
:103150000B0243EA106302027969496849080020BA
:103160000C46054612EB040843EB05097B695B68D6
:1031700000229A46934652465B4640464946FDF732
:103180002FF802460B4613463B623B6AB3F5407F7D
:1031900008D33B6AB3F5801F04D27B691B683A6A87
:1031A000DA60C9E0012387F82A30C5E07B69DB6972
:1031B000B3F5004F6DD197F82B30013B072B2DD87D
:1031C00001A252F823F000BFE9310008F1310008F4
:1031D0001D320008F73100081D3200081D320008BA
:1031E0001D320008FF310008FEF73AFD78621BE04F
:1031F000084B7B6218E0FEF79DFC786214E04FF408
:1032000000437B6210E000BFF369FFCF0080004005
:10321000003801400024F400388D000800237B6250
:10322000012387F82A3000BF7B6A002B00F08480DE
:103230007B695B6A4B4A32F813301A467B6AB3FBF0
:10324000F2F35A007B695B685B081A447B695B6830
:10325000B2FBF3F33B623B6A0F2B16D93B6AB3F523
:10326000803F12D23B6A9BB223F00F03FB833B6A81
:103270005B089BB203F007039AB2FB8B1343FB83FB
:103280007B691B68FA8BDA6056E0012387F82A30E5
:1032900052E097F82B30013B072B22D801A252F8BD
:1032A00023F000BFC5320008CD320008E332000829
:1032B000D3320008E3320008E3320008E3320008AA
:1032C000DB320008FEF7CCFC786210E0264B7B6214
:1032D0000DE0FEF72FFC786209E04FF400437B62BB
:1032E00005E000237B62012387F82A3000BF7B6A58
:1032F000002B21D07B695B6A1A4A32F813301A46D8
:103300007B6AB3FBF2F27B695B685B081A447B69FA
:103310005B68B2FBF3F33B623B6A0F2B09D93B6A54
:10332000B3F5803F05D23B6A9AB27B691B68DA60CD
:1033300002E0012387F82A307B690122A3F86A2082
:103340007B690122A3F868207B6900225A677B69A8
:1033500000229A6797F82A3018463037BD46BDE8F4
:10336000B08F00BF388D00080024F40080B483B013
:1033700000AF78607B689B6A03F00803002B0AD0DB
:103380007B681B685B6823F400417B689A6B7B68F1
:103390001B680A435A607B689B6A03F00103002B99
:1033A0000AD07B681B685B6823F400317B68DA6AAB
:1033B0007B681B680A435A607B689B6A03F00203C0
:1033C000002B0AD07B681B685B6823F480317B6824
:1033D0001A6B7B681B680A435A607B689B6A03F020
:1033E0000403002B0AD07B681B685B6823F48021F0
:1033F0007B685A6B7B681B680A435A607B689B6AD0
:1034000003F01003002B0AD07B681B689B6823F431
:1034100080517B68DA6B7B681B680A439A607B6823
:103420009B6A03F02003002B0AD07B681B689B6813
:1034300023F400517B681A6C7B681B680A439A600E
:103440007B689B6A03F04003002B1AD07B681B68E3
:103450005B6823F480117B685A6C7B681B680A43A5
:103460005A607B685B6CB3F5801F0AD17B681B6870
:103470005B6823F4C0017B689A6C7B681B680A4315
:103480005A607B689B6A03F08003002B0AD07B683C
:103490001B685B6823F400217B68DA6C7B681B681F
:1034A0000A435A6000BF0C37BD465DF8047B704785
:1034B00080B598B002AF78607B680022C3F8902096
:1034C000FFF7E6FB78657B681B681B6803F0080361
:1034D000082B2FD16FF07E4300937B6D00224FF4B9
:1034E0000011786800F08EF80346002B22D07B682C
:1034F0001B68BB63BB6B53E8003F7B637B6B23F0B4
:1035000080033B657B681B681A463B6D7B643A64AD
:10351000396C7A6C41E80023FB63FB6B002BE6D12E
:103520007B682022C3F888207B68002283F88420EF
:10353000032363E07B681B681B6803F00403042B10
:1035400049D16FF07E4300937B6D00224FF48001E0
:10355000786800F057F80346002B3CD07B681B6866
:103560007B627B6A53E8003F3B623B6A23F49073C3
:10357000FB647B681B681A46FB6C3B63FA62F96A62
:103580003A6B41E80023BB62BB6A002BE6D17B6843
:103590001B6808333B613B6953E8003FFB60FB68F5
:1035A00023F00103BB647B681B680833BA6CFA61C3
:1035B000BB61B969FA6941E800237B617B69002B33
:1035C000E5D17B682022C3F88C207B68002283F839
:1035D0008420032312E07B682022C3F888207B68C4
:1035E0002022C3F88C207B680022DA667B680022E8
:1035F0001A677B68002283F8842000231846583716
:10360000BD4680BD80B584B000AFF860B9603B6056
:103610001346FB714FE0BB69B3F1FF3F4BD0FFF79F
:1036200037FB02463B68D31ABA699A4202D3BB6998
:10363000002B01D103234EE0FB681B681B6803F0DD
:103640000403002B37D0BB68802B34D0BB68402BE1
:1036500031D0FB681B68DB6903F00803082B10D12D
:10366000FB681B6808221A62F86800F038F8FB68EB
:103670000822C3F89020FB68002283F884200123ED
:1036800029E0FB681B68DB6903F40063B3F5006F96
:1036900011D1FB681B684FF400621A62F86800F0F1
:1036A0001EF8FB682022C3F89020FB68002283F8F4
:1036B000842003230FE0FB681B68DA69BB681340B2
:1036C000BA689A420CBF01230023DBB21A46FB7989
:1036D0009A42A0D0002318461037BD4680BD80B462
:1036E00095B000AF78607B681B687B637B6B53E8A9
:1036F000003F3B633B6B23F49073FB647B681B6868
:103700001A46FB6C3B64FA63F96B3A6C41E80023A0
:10371000BB63BB6B002BE6D17B681B6808333B6245
:103720003B6A53E8003FFB61FB6923F0805323F0C1
:103730000103BB647B681B680833BA6CFA62BB6226
:10374000B96AFA6A41E800237B627B6A002BE3D105
:103750007B68DB6E012B18D17B681B68FB60FB6804
:1037600053E8003FBB60BB6823F010037B647B68B9
:103770001B681A467B6CBB617A617969BA6941E85A
:1037800000233B613B69002BE6D17B682022C3F814
:103790008C207B680022DA667B6800225A6700BFB3
:1037A0005437BD465DF8047B704780B485B000AFE8
:1037B00078607B6893F88430012B01D1022327E0E5
:1037C0007B68012283F884207B682422C3F8882048
:1037D0007B681B681B68FB607B681B681A687B68DA
:1037E0001B6822F001021A60FB6823F00053FB60A3
:1037F0007B6800225A667B681B68FA681A607B68DF
:103800002022C3F888207B68002283F884200023CC
:1038100018461437BD465DF8047B704780B584B008
:1038200000AF786039607B6893F88430012B01D158
:1038300002232DE07B68012283F884207B68242208
:10384000C3F888207B681B681B68FB607B681B686B
:103850001A687B681B6822F001021A607B681B688B
:103860009B6823F060417B681B683A680A439A6052
:10387000786800F04FF87B681B68FA681A607B680C
:103880002022C3F888207B68002283F8842000234C
:1038900018461037BD4680BD80B584B000AF786053
:1038A00039607B6893F88430012B01D102232DE02D
:1038B0007B68012283F884207B682422C3F8882057
:1038C0007B681B681B68FB607B681B681A687B68E9
:1038D0001B6822F001021A607B681B689B6823F05A
:1038E00060617B681B683A680A439A60786800F0F8
:1038F00011F87B681B68FA681A607B682022C3F89D
:1039000088207B68002283F8842000231846103723
:10391000BD4680BD80B485B000AF78607B685B6ECB
:10392000002B08D17B680122A3F86A207B68012262
:10393000A3F8682031E00823FB730823BB737B687E
:103940001B689B685B0EDBB203F007037B737B682D
:103950001B689B685B0FDBB203F007033B73BB7B09
:103960003A7B11498A5C02FB03F33A7B0F498A5C7C
:1039700093FBF2F39AB27B68A3F86A20FB7B7A7B15
:1039800009498A5C02FB03F37A7B08498A5C93FB52
:10399000F2F39AB27B68A3F8682000BF1437BD46E3
:1039A0005DF8047B704700BF508D0008588D0008FB
:1039B00080B400AF244BD3F88830234A43F470031B
:1039C000C2F888304FF0B0431B684FF0B04243F06C
:1039D000010313604FF0B0434FF4E0229A604FF0C0
:1039E000B0431A684FF0B041184B13400B604FF0D2
:1039F000B043D3F894304FF0B04223F00503C2F83F
:103A000094304FF0B043D3F898304FF0B04223F0E9
:103A10000103C2F898304FF0B0430D4ADA604FF01E
:103A2000B0430B4A1A614FF0B0431B684FF0B042ED
:103A300023F4802313604FF0B04300229A6100BF4B
:103A4000BD465DF8047B704700ED00E0FBFEF6FA32
:103A50000010042280B586B000AF7860144A154B80
:103A6000D31A7B617B693B61134B1B68002B02D12E
:103A7000114B124A1A60104B1A687B6813443A695A
:103A80009A4207D204F0AAF903460C221A604FF0BA
:103A9000FF3309E0084B1B68FB60074B1A687B6823
:103AA0001344054A1360FB6818461837BD4680BDAD
:103AB000000003200004000068010020501C0020CA
:103AC00080B586B000AFF860B9607A6000237B6192
:103AD0000AE0AFF300800146BB685A1CBA60CAB264
:103AE0001A707B6901337B617A697B689A42F0DBEB
:103AF0007B6818461837BD4680BD80B483B000AFE0
:103B000078604FF0FF3318460C37BD465DF8047BF4
:103B1000704780B483B000AF786039603B684FF481
:103B200000525A60002318460C37BD465DF8047BEE
:103B3000704780B483B000AF7860012318460C371B
:103B4000BD465DF8047B704780B485B000AFF86077
:103B5000B9607A60002318461437BD465DF8047BCF
:103B6000704780B485B000AF78604FF0B0431A6EF4
:103B70004FF0B0417B6813430B664FF0B0431A6EB1
:103B80007B681340FB60FB6800BF1437BD465DF8DF
:103B9000047B704780B58EB000AF786000233B6334
:103BA0000023FB62002387F8373000227968192050
:103BB000FFF712F81920FFF729F84FF40030FFF74C
:103BC000D0FF07F10C0207F1100311461846FEF76B
:103BD0005DF8FEF745F838633B6B214AA2FB0323EF
:103BE0009B0C013BFB621F4B1F4A1A601D4B40F2AE
:103BF000E732DA601B4AFB6A53601A4B00221A61F3
:103C0000184B00229A60174800F032F8034687F8F4
:103C1000373097F83730002B1BD1124800F08AF864
:103C2000034687F8373097F83730002B11D1192029
:103C3000FEF7ECFF7B680F2B08D80022796819206B
:103C4000FEF7CAFF094A7B68136002E0012387F888
:103C5000373097F8373018463837BD4680BD00BF3B
:103C600083DE1B436C01002000440140240000203F
:103C700080B582B000AF78607B68002B01D1012352
:103C800049E07B6893F83D30DBB2002B06D17B68BE
:103C9000002283F83C20786800F041F87B6802221B
:103CA00083F83D207B681A687B6804331946104608
:103CB00000F0BEF97B68012283F848207B6801226E
:103CC00083F83E207B68012283F83F207B68012235
:103CD00083F840207B68012283F841207B68012221
:103CE00083F842207B68012283F843207B6801220D
:103CF00083F844207B68012283F845207B680122F9
:103D000083F846207B68012283F847207B680122E4
:103D100083F83D20002318460837BD4680BD80B497
:103D200083B000AF786000BF0C37BD465DF8047B00
:103D30007047000080B485B000AF78607B6893F86E
:103D40003D30DBB2012B01D0012336E07B6802223B
:103D500083F83D207B681B68DA687B681B6842F04B
:103D60000102DA607B681B68174A934204D07B68C3
:103D70001B68B3F1804F15D17B681B689A68134BA1
:103D80001340FB60FB68062B15D0FB68B3F5803F42
:103D900011D07B681B681A687B681B6842F00102BF
:103DA0001A6008E07B681B681A687B681B6842F031
:103DB00001021A6000E000BF002318461437BD4618
:103DC0005DF8047B704700BF002C01400700010034
:103DD00080B584B000AF78607B681B68DB68FB60EF
:103DE0007B681B681B69BB60BB6803F00203002B88
:103DF00020D0FB6803F00203002B1BD07B681B68FC
:103E00006FF002021A617B6801221A777B681B68D7
:103E10009B6903F00303002B03D0786800F0E9F8F6
:103E200005E0786800F0DBF8786800F0ECF87B6873
:103E300000221A77BB6803F00403002B20D0FB6834
:103E400003F00403002B1BD07B681B686FF0040297
:103E50001A617B6802221A777B681B689B6903F4EE
:103E60004073002B03D0786800F0C3F805E0786851
:103E700000F0B5F8786800F0C6F87B6800221A7781
:103E8000BB6803F00803002B20D0FB6803F0080395
:103E9000002B1BD07B681B686FF008021A617B68DF
:103EA00004221A777B681B68DB6903F00303002B8D
:103EB00003D0786800F09DF805E0786800F08FF88E
:103EC000786800F0A0F87B6800221A77BB6803F0DE
:103ED0001003002B20D0FB6803F01003002B1BD035
:103EE0007B681B686FF010021A617B6808221A77E2
:103EF0007B681B68DB6903F44073002B03D0786890
:103F000000F077F805E0786800F069F8786800F06C
:103F10007AF87B6800221A77BB6803F00103002B54
:103F20000CD0FB6803F00103002B07D07B681B68F3
:103F30006FF001021A617868FCF722FCBB6803F09D
:103F40008003002B04D1BB6803F40053002B0CD07A
:103F5000FB6803F08003002B07D07B681B686FF4BD
:103F600002521A61786800F0D7F8BB6803F48073D6
:103F7000002B0CD0FB6803F08003002B07D07B687C
:103F80001B686FF480721A61786800F0CFF8BB6824
:103F900003F04003002B0CD0FB6803F04003002B20
:103FA00007D07B681B686FF040021A61786800F0E8
:103FB00034F8BB6803F02003002B0CD0FB6803F03F
:103FC0002003002B07D07B681B686FF020021A616A
:103FD000786800F097F800BF1037BD4680BD80B408
:103FE00083B000AF786000BF0C37BD465DF8047B3E
:103FF000704780B483B000AF786000BF0C37BD4617
:104000005DF8047B704780B483B000AF786000BF78
:104010000C37BD465DF8047B704780B483B000AFB9
:10402000786000BF0C37BD465DF8047B7047000028
:1040300080B485B000AF786039607B681B68FB6036
:104040007B682D4A934203D07B68B3F1804F08D13F
:10405000FB6823F07003FB603B685B68FA681343FE
:10406000FB607B68244A93420BD07B68B3F1804F9E
:1040700007D07B68214A934203D07B68204A934251
:1040800008D1FB6823F44073FB603B68DB68FA6887
:104090001343FB60FB6823F080023B685B691343BA
:1040A000FB603B689A687B68DA623B681A687B68E9
:1040B0009A627B68104A934207D07B680F4A93420A
:1040C00003D07B680E4A934203D13B681A697B6830
:1040D0001A637B681B6843F004027B681A607B6884
:1040E00001225A617B68FA681A6000BF1437BD4626
:1040F0005DF8047B704700BF002C01400044014084
:104100000048014080B483B000AF786000BF0C3736
:10411000BD465DF8047B704780B483B000AF786023
:1041200000BF0C37BD465DF8047B704780B483B098
:1041300000AF786000BF0C37BD465DF8047B704768
:1041400080B483B000AF78607B6803F108027B68BD
:104150005A607B684FF0FF329A607B6803F1080277
:104160007B68DA607B6803F108027B681A617B6810
:1041700000221A6000BF0C37BD465DF8047B704713
:1041800080B483B000AF78607B6800221A6100BF02
:104190000C37BD465DF8047B704780B485B000AF36
:1041A000786039603B681B68BB60BB68B3F1FF3F58
:1041B00003D17B681B69FB600CE07B680833FB6004
:1041C00002E0FB685B68FB60FB685B681B68BA68C1
:1041D0009A42F6D2FB685A683B685A603B685B6853
:1041E0003A689A603B68FA689A60FB683A685A6075
:1041F0003B687A681A617B681B685A1C7B681A6086
:1042000000BF1437BD465DF8047B704780B485B0AD
:1042100000AF78607B681B69FB607B685B687A68CD
:1042200092689A607B689B687A6852685A60FB68FB
:104230005B687A689A4203D17B689A68FB685A6027
:104240007B6800221A61FB681B685A1EFB681A60B3
:10425000FB681B6818461437BD465DF8047B704741
:1042600080B586B000AF7860396001237B617B68E0
:104270003B613B69002B0BD14FF0500383F3118856
:10428000BFF36F8FBFF34F8FFB6000BF00BFFDE731
:104290003B69002B5DD03B69DB6B002B59D03B6940
:1042A0001A6C3B69DB6B0021A3FB0223002B00D0BF
:1042B00001210B46002B4CD103F04AF93B691A68E7
:1042C0003B69DB6B3969096C01FB03F31A443B69F9
:1042D0009A603B6900229A633B691A683B695A609D
:1042E0003B691A683B69DB6B013B3969096C01FB6F
:1042F00003F31A443B69DA603B69FF2283F84420E8
:104300003B69FF2283F845203B68002B14D13B69B1
:104310001B69002B1AD03B691033184601F0CAFB09
:104320000346002B12D0164B4FF080521A60BFF399
:104330004F8FBFF36F8F09E03B6910331846FFF7CB
:10434000FFFE3B6924331846FFF7FAFE03F032F90B
:1043500001E000237B617B69002B0BD14FF0500300
:1043600083F31188BFF36F8FBFF34F8FBB6000BF24
:1043700000BFFDE77B6918461837BD4680BD00BF0A
:1043800004ED00E080B58CB002AFF860B9607A60EF
:104390003B6000237B623B68002B0BD14FF0500346
:1043A00083F31188BFF36F8FBFF34F8F3B6200BF62
:1043B00000BFFDE7FB68002B31D03B68002B2ED0FF
:1043C0007B68002B02D0BB68002B28D07B68002BB9
:1043D00002D1BB68002B22D150237B617B69502B1B
:1043E0000BD04FF0500383F31188BFF36F8FBFF3EF
:1043F0004F8FFB6100BF00BFFDE77B693B687B62BD
:104400007B6A012283F8462097F830207B6A00936C
:1044100013467A68B968F86800F068F80EE07B6ABD
:10442000002B0BD14FF0500383F31188BFF36F8F34
:10443000BFF34F8FBB6100BF00BFFDE77B6A18462B
:104440002837BD4680BD80B58AB002AFF860B9603C
:104450001346FB710023FB61FB68002B32D0002167
:10446000BA68FB68A3FB0223002B00D001210B4696
:10447000002B27D1FB68BA6802FB03F313F1510F3D
:1044800020D8FB68BA6802FB03F3BB61BB695033F9
:10449000184602F033FDF861FB69002B21D0FB695F
:1044A0007B617B6950337B61FB69002283F8462086
:1044B000FA79FB69009313467A69B968F86800F0E5
:1044C00015F80EE0FB69002B0BD14FF0500383F37E
:1044D0001188BFF36F8FBFF34F8F3B6100BF00BFE9
:1044E000FDE7FB6918462037BD4680BD80B584B026
:1044F00000AFF860B9607A60FB70BB68002B03D135
:10450000BB69BA691A6002E0BB697A681A60BB6964
:10451000FA68DA63BB69BA681A640121B869FFF7FF
:104520009FFEBB69FA7883F84C2000BF1037BD4668
:1045300080BD80B582B000AF78607B68002B0ED064
:104540007B6800229A607B6800221A607B680022E8
:10455000DA60002300220021786800F0A3F800BF91
:104560000837BD4680BD80B586B000AF0346FB71FD
:1045700001237B6100233B61FB791A463969786925
:10458000FFF761FFF860F868FFF7D3FFFB68184694
:104590001837BD4680BD80B588B002AF034639608C
:1045A000FB7101237B6100233B61FB7900933B6836
:1045B000002239697869FFF7E5FEF860F868FFF7CF
:1045C000B8FFFB6818461837BD4680BD90B587B068
:1045D00000AF78607B683B613B69002B0BD14FF0EB
:1045E000500383F31188BFF36F8FBFF34F8FFB60CE
:1045F00000BF00BFFDE73B699C6801F08FFC0346EC
:104600009C4211D13B69DB685A1E3B69DA603B6909
:10461000DB68002B05D1002300220021386900F05F
:1046200041F801237B6101E000237B617B6918462F
:104630001C37BD4690BD90B587B000AF786039603B
:104640007B683B613B69002B0BD14FF0500383F338
:104650001188BFF36F8FBFF34F8FFB6000BF00BFA8
:10466000FDE73B699C6801F059FC03469C4207D179
:104670003B69DB685A1C3B69DA6001237B610CE013
:104680003968386900F0F2F978617B69002B04D051
:104690003B69DB685A1C3B69DA607B6918461C374A
:1046A000BD4690BD80B58EB000AFF860B9607A604D
:1046B0003B6000237B63FB683B633B6B002B0BD1B0
:1046C0004FF0500383F31188BFF36F8FBFF34F8F09
:1046D000BB6200BF00BFFDE7BB68002B03D13B6B93
:1046E0001B6C002B01D1012300E00023002B0BD118
:1046F0004FF0500383F31188BFF36F8FBFF34F8FD9
:104700007B6200BF00BFFDE73B68022B03D13B6B20
:10471000DB6B012B01D1012300E00023002B0BD127
:104720004FF0500383F31188BFF36F8FBFF34F8FA8
:104730003B6200BF00BFFDE701F000FC0346002B19
:1047400002D17B68002B01D1012300E00023002B64
:104750000BD14FF0500383F31188BFF36F8FBFF37A
:104760004F8FFB6100BF00BFFDE702F0F1FE3B6B26
:104770009A6B3B6BDB6B9A4202D33B68022B29D1CD
:104780003A68B968386B00F089FAF8623B6B5B6A8B
:10479000002B10D03B6B2433184601F08BF90346F5
:1047A000002B13D03F4B4FF080521A60BFF34F8F56
:1047B000BFF36F8F0AE0FB6A002B07D0394B4FF035
:1047C00080521A60BFF34F8FBFF36F8F02F0F2FE7B
:1047D000012363E07B68002B03D102F0EBFE002392
:1047E0005CE07B6B002B06D107F11403184601F047
:1047F00039FA01237B6302F0DDFE00F05DFE02F07A
:10480000A7FE3B6B93F844305BB2B3F1FF3F03D19B
:104810003B6B002283F844203B6B93F845305BB23E
:10482000B3F1FF3F03D13B6B002283F8452002F038
:10483000C1FE3A1D07F114031146184601F028FA8B
:104840000346002B24D1386B00F020FB0346002BDD
:1048500018D03B6B10337A681146184601F0BEF849
:10486000386B00F0ABFA00F035FE0346002B7FF406
:104870007CAF0C4B4FF080521A60BFF34F8FBFF3E9
:104880006F8F72E7386B00F099FA00F023FE6CE747
:10489000386B00F093FA00F01DFE002318463837FD
:1048A000BD4680BD04ED00E080B58CB000AFF8607F
:1048B000B9607A600023FB62FB68BB62BB6A002BB5
:1048C0000BD14FF0500383F31188BFF36F8FBFF309
:1048D0004F8F3B6200BF00BFFDE7BB68002B03D1D9
:1048E000BB6A1B6C002B01D1012300E00023002BCD
:1048F0000BD14FF0500383F31188BFF36F8FBFF3D9
:104900004F8FFB6100BF00BFFDE701F017FB0346BF
:10491000002B02D17B68002B01D1012300E0002392
:10492000002B0BD14FF0500383F31188BFF36F8F2F
:10493000BFF34F8FBB6100BF00BFFDE702F008FE71
:10494000BB6A9B6B7B627B6A002B1FD0B968B86A1D
:1049500000F00EFA7B6A5A1EBB6A9A63BB6A1B6937
:10496000002B0FD0BB6A1033184601F0A3F80346A2
:10497000002B07D03C4B4FF080521A60BFF34F8F93
:10498000BFF36F8F02F016FE012369E07B68002BF6
:1049900003D102F00FFE002362E0FB6A002B06D178
:1049A00007F11003184601F05DF90123FB6202F0E4
:1049B00001FE00F081FD02F0CBFDBB6A93F84430AC
:1049C0005BB2B3F1FF3F03D1BB6A002283F84420FE
:1049D000BB6A93F845305BB2B3F1FF3F03D1BB6ACA
:1049E000002283F8452002F0E5FD3A1D07F110038F
:1049F0001146184601F04CF90346002B23D1B86A42
:104A000000F02EFA0346002B17D0BB6A24337A68D5
:104A10001146184600F0E2FFB86A00F0CFF900F046
:104A200059FD0346002B89D10F4B4FF080521A607D
:104A3000BFF34F8FBFF36F8F80E7B86A00F0BEF906
:104A400000F048FD7AE7B86A00F0B8F900F042FDDE
:104A5000B86A00F005FA0346002B3FF46FAF00235D
:104A600018463037BD4680BD04ED00E080B58CB0FF
:104A700000AF786039600023FB627B687B620023B3
:104A8000BB627B6A002B0BD14FF0500383F311887C
:104A9000BFF36F8FBFF34F8FBB6100BF00BFFDE758
:104AA0007B6A1B6C002B0BD04FF0500383F31188F3
:104AB000BFF36F8FBFF34F8F7B6100BF00BFFDE778
:104AC00001F03CFA0346002B02D13B68002B01D1D8
:104AD000012300E00023002B0BD14FF0500383F3A0
:104AE0001188BFF36F8FBFF34F8F3B6100BF00BFD3
:104AF000FDE702F02DFD7B6A9B6B3B623B6A002B5E
:104B000024D03B6A5A1E7B6A9A637B6A1B68002B1F
:104B100004D101F005FC02467B6A9A607B6A1B693E
:104B2000002B0FD07B6A1033184600F0C3FF0346FA
:104B3000002B07D04C4B4FF080521A60BFF34F8FC1
:104B4000BFF36F8F02F036FD012389E03B68002B35
:104B500003D102F02FFD002382E0FB6A002B06D177
:104B600007F10803184601F07DF80123FB6202F00B
:104B700021FD00F0A1FC02F0EBFC7B6A93F84430CD
:104B80005BB2B3F1FF3F03D17B6A002283F844207C
:104B90007B6A93F845305BB2B3F1FF3F03D17B6A88
:104BA000002283F8452002F005FD3A4607F108038C
:104BB0001146184601F06CF80346002B32D1786A92
:104BC00000F04EF90346002B26D07B6A1B68002BB1
:104BD00009D102F0BDFC7B6A9B68184601F0CCF954
:104BE000B86202F0E7FC7B6A24333A681146184643
:104BF00000F0F4FE786A00F0E1F800F06BFC034688
:104C0000002B7FF476AF184B4FF080521A60BFF341
:104C10004F8FBFF36F8F6CE7786A00F0CFF800F02A
:104C200059FC66E7786A00F0C9F800F053FC786A2E
:104C300000F016F90346002B3FF45BAFBB6A002B74
:104C40000DD002F085FC786A00F010F8F8617B6AFC
:104C50009B68F969184601F0B7FA02F0ABFC002333
:104C600018463037BD4680BD04ED00E080B485B005
:104C700000AF78607B685B6A002B06D07B681B6B9B
:104C80001B68C3F13803FB6001E00023FB60FB6895
:104C900018461437BD465DF8047B704780B586B072
:104CA00000AFF860B9607A6000237B61FB689B6BA2
:104CB0003B61FB681B6C002B0DD1FB681B68002B54
:104CC0004DD1FB689B68184601F0E6F97861FB68F6
:104CD00000229A6043E07B68002B19D1FB6858687A
:104CE000FB681B6C1A46B96803F0A5F8FB685A68A4
:104CF000FB681B6C1A44FB685A60FB685A68FB68C7
:104D00009B689A422BD3FB681A68FB685A6026E0BE
:104D1000FB68D868FB681B6C1A46B96803F08BF80F
:104D2000FB68DA68FB681B6C5B421A44FB68DA605C
:104D3000FB68DA68FB681B689A4207D2FB689A68CE
:104D4000FB681B6C5B421A44FB68DA607B68022BD1
:104D500005D13B69002B02D03B69013B3B613B69BC
:104D60005A1CFB689A637B6918461837BD4680BD9C
:104D700080B582B000AF786039607B681B6C002B17
:104D800018D07B68DA687B681B6C1A447B68DA6031
:104D90007B68DA687B689B689A4203D37B681A68F1
:104DA0007B68DA607B68D9687B681B6C1A46386858
:104DB00003F041F800BF0837BD4680BD80B584B020
:104DC00000AF786002F0C4FB7B6893F84530FB735A
:104DD00011E07B685B6A002B12D07B682433184695
:104DE00000F068FE0346002B01D000F0B9FFFB7B0A
:104DF000013BDBB2FB7397F90F30002BE9DC00E0DD
:104E000000BF7B68FF2283F8452002F0D3FB02F04D
:104E10009FFB7B6893F84430BB7311E07B681B6990
:104E2000002B12D07B681033184600F043FE034677
:104E3000002B01D000F094FFBB7B013BDBB2BB73C6
:104E400097F90E30002BE9DC00E000BF7B68FF2201
:104E500083F8442002F0AEFB00BF1037BD4680BD92
:104E600080B584B000AF786002F072FB7B689B6B0A
:104E7000002B02D10123FB6001E00023FB6002F064
:104E800099FBFB6818461037BD4680BD80B584B0DD
:104E900000AF786002F05CFB7B689A6B7B68DB6B31
:104EA0009A4202D10123FB6001E00023FB6002F083
:104EB00081FBFB6818461037BD4680BD80B487B0C3
:104EC00000AF7860396000233B617B68002B0BD119
:104ED0004FF0500383F31188BFF36F8FBFF34F8FF1
:104EE000FB6000BF00BFFDE73B68002B24D0002320
:104EF0007B611EE0184A7B69DB0013445B687A68BB
:104F00009A4205D17B69DB00134A13443B6113E0ED
:104F10003B69002B0AD1104A7B6952F83330002BD1
:104F200004D17B69DB000C4A13443B617B6901338C
:104F30007B617B69072BDDD93B69002B05D03B6981
:104F40003A681A603B697A685A6000BF1C37BD46F0
:104F50005DF8047B704700BFB801002080B586B0C3
:104F600000AFF860B9607A60FB687B6102F0F0FA2C
:104F70007B6993F844305BB2B3F1FF3F03D17B69A7
:104F8000002283F844207B6993F845305BB2B3F18B
:104F9000FF3F03D17B69002283F8452002F00AFB22
:104FA0007B699B6B002B06D17B6924337A68B968D7
:104FB000184600F039FD7869FFF700FF00BF183789
:104FC000BD4680BD80B58EB004AFF860B9607A6030
:104FD0003B607B6B002B0BD14FF0500383F31188A8
:104FE000BFF36F8FBFF34F8F3B6200BF00BFFDE782
:104FF000BB6B002B0BD14FF0500383F31188BFF331
:105000006F8FBFF34F8FFB6100BF00BFFDE75C23D5
:105010003B613B695C2B0BD04FF0500383F311884D
:10502000BFF36F8FBFF34F8FBB6100BF00BFFDE7C2
:105030003B69BB6B002B23D07B6B002B20D0BB6B61
:105040007B625C220021786A02F06AFE7B6A7A6BDE
:105050001A637B6A022283F85920002303937B6A38
:10506000029307F1140301933B6B00933B687A684A
:10507000B968F86800F055F8786A00F0E3F801E0E4
:1050800000237B617B6918462837BD4680BD80B50B
:105090008CB004AFF860B9603B601346FB80FB88BE
:1050A0009B00184601F02AFF78617B69002B13D022
:1050B0005C2001F023FFF861FB69002B08D05C2223
:1050C0000021F86902F02CFEFB697A691A6305E099
:1050D000786901F0DFFF01E00023FB61FB69002B31
:1050E00017D0FB69002283F85920FA880023039324
:1050F000FB690293FB6A0193BB6A00933B68B96842
:10510000F86800F00EF8F86900F09CF80123BB6124
:1051100002E04FF0FF33BB61BB6918462037BD4644
:1051200080BD80B588B000AFF860B9607A603B6040
:105130003B6B186B7B689B001A46A52102F0F0FDC3
:105140003B6B1A6B7B6803F18043013B9B0013446C
:10515000BB61BB6923F00703BB61BB6903F00703B5
:10516000002B0BD04FF0500383F31188BFF36F8FE8
:10517000BFF34F8F7B6100BF00BFFDE7BB68002B13
:105180001ED00023FB6112E0BA68FB691344197852
:105190003A6BFB69134434330A461A70BA68FB69E8
:1051A00013441B78002B06D0FB690133FB61FB69BC
:1051B0000F2BE9D900E000BF3B6B002283F84320AE
:1051C000BB6A372B0BD94FF0500383F31188BFF321
:1051D0006F8FBFF34F8F3B6100BF00BFFDE7BB6A1E
:1051E000372B01D93723BB623B6BBA6ADA623B6B60
:1051F000BA6ADA643B6B04331846FEF7C1FF3B6BB7
:1052000018331846FEF7BCFF3B6B3A6B1A61BB6A5A
:10521000C3F138023B6B9A613B6B3A6B5A623A6856
:10522000F968B86902F046F802463B6B1A60FB6AFF
:10523000002B02D0FB6A3A6B1A6000BF2037BD46D4
:1052400080BD000080B584B000AF786002F080F9C6
:10525000414B1B680133404A1360404B1B68002BD5
:1052600009D13E4A7B6813603B4B1B68012B10D170
:1052700000F09AFD0DE03A4B1B68002B09D1374B2B
:105280001B68DA6A7B68DB6A9A4202D8334A7B6819
:105290001360344B1B680133324A1360314B1A6878
:1052A0007B685A647B68DA6A2F4B1B689A4203D981
:1052B0007B68DB6A2C4A13607B68DA6A2B491346E9
:1052C0009B0013449B000B4404331B68FB607B680A
:1052D000FA689A60FB689A687B68DA60FB689B688A
:1052E0007A6804325A607B681A1DFB689A607B6892
:1052F000DA6A13469B0013449B001C4A1A447B68DD
:105300005A617B68DA6A194913469B0013449B0073
:105310000B441B68591C154813469B0013449B0003
:105320000344196002F046F90D4B1B68002B0ED0A8
:105330000A4B1B68DA6A7B68DB6A9A4207D20C4B1D
:105340004FF080521A60BFF34F8FBFF36F8F00BFD3
:105350001037BD4680BD00BFCC060020F8010020FC
:10536000D8060020E8060020D4060020FC0100201A
:1053700004ED00E080B584B000AF78600023FB60EE
:105380007B68002B18D0144B1B68002B0BD04FF000
:10539000500383F31188BFF36F8FBFF34F8FBB6050
:1053A00000BF00BFFDE700F087F80021786800F03B
:1053B000CBFF00F08FF8F860FB68002B07D1074B9C
:1053C0004FF080521A60BFF34F8FBFF36F8F00BF53
:1053D0001037BD4680BD00BFF406002004ED00E09C
:1053E00080B58AB004AF0023BB6000237B603A46DF
:1053F000391D07F10803184601F04CFD39687B6838
:10540000BA68029201930023009300230A462349BD
:105410002348FFF7D7FD0346224A1360214B1B6840
:10542000002B02D001237B6101E000237B617B69BB
:10543000012B02D100F0F6FF78617B69012B16D1B8
:105440004FF0500383F31188BFF36F8FBFF34F8F7B
:105450003B6100BF144B4FF0FF321A60134B012227
:105460001A60134B00221A6001F0B4FF0FE07B6951
:10547000B3F1FF3F0BD14FF0500383F31188BFF31B
:105480006F8FBFF34F8FFB6000BF00BFFDE7094B7D
:105490001B6800BF1837BD4680BD00BF708C000878
:1054A000795D0008F0060020EC060020D8060020F8
:1054B000D0060020008E000880B400AF044B1B68AB
:1054C0000133034A136000BFBD465DF8047B70479B
:1054D000F406002080B588B000AF0023FB610023F4
:1054E000BB61724B1B68002B0BD14FF0500383F351
:1054F0001188BFF36F8FBFF34F8F7B6000BF00BF7A
:10550000FDE702F025F8694B1B68013B674A136011
:10551000664B1B68002B40F0C180654B1B68002B5D
:1055200000F0BC808BE0634BDB68DB68FB61FB69F0
:105530009B6A3B61FB69DB69FA69126A9A60FB69E5
:105540001B6AFA69D2695A603B695A68FB69183369
:105550009A4203D1FB691A6A3B695A60FB690022CF
:105560009A623B691B685A1E3B691A60FB695B695A
:10557000FB60FB699B68FA69D2689A60FB69DB682B
:10558000FA6992685A60FB685A68FB6904339A4268
:1055900003D1FB69DA68FB685A60FB6900225A6133
:1055A000FB681B685A1EFB681A60FB69DA6A424B8B
:1055B0001B689A4203D9FB69DB6A3F4A1360FB69A7
:1055C000DA6A3E4913469B0013449B000B440433A4
:1055D0001B68BB60FB69BA689A60BB689A68FB6924
:1055E000DA60BB689B68FA6904325A60FB691A1D6D
:1055F000BB689A60FB69DA6A13469B0013449B0000
:105600002E4A1A44FB695A61FB69DA6A2B49134630
:105610009B0013449B000B441B68591C27481346EE
:105620009B0013449B0003441960FB69DA6A244B16
:105630001B68DB6A9A4202D9224B01221A601D4B79
:105640001B68002B7FF46FAFFB69002B01D000F0CB
:1056500049FC1D4B1B687B617B69002B10D000F05F
:1056600047F80346002B02D0164B01221A607B69D3
:10567000013B7B617B69002BF1D1134B00221A6047
:10568000104B1B68002B09D00123BB610F4B4FF05F
:1056900080521A60BFF34F8FBFF36F8F01F08AFF04
:1056A000BB6918462037BD4680BD00BFF406002008
:1056B000CC0600208C060020D4060020FC0100202F
:1056C000F8010020E0060020DC06002004ED00E0E8
:1056D00080B483B000AF054B1B687B607B681846C5
:1056E0000C37BD465DF8047B704700BFD006002034
:1056F00080B58AB000AF00237B627E4B1B68002B15
:1057000040F0EE807C4B1B6801333B627A4A3B6A77
:1057100013603B6A002B21D1784B1B681B68002B60
:105720000BD04FF0500383F31188BFF36F8FBFF39B
:105730004F8F7B6000BF00BFFDE7704B1B68FB61B4
:105740006F4B1B686D4A13606D4AFB6913606D4BAC
:105750001B6801336B4A136000F0C4FB6A4B1B6883
:105760003A6A9A42C0F0A780644B1B681B68002B02
:1057700004D1654B4FF0FF321A609CE05F4B1B6811
:10578000DB68DB68BB61BB695B687B613A6A7B692C
:105790009A4203D25C4A7B6913608CE0BB695B6907
:1057A0003B61BB699B68BA69D2689A60BB69DB6878
:1057B000BA6992685A603B695A68BB6904339A4275
:1057C00003D1BB69DA683B695A60BB6900225A6140
:1057D0003B691B685A1E3B691A60BB699B6A002BB8
:1057E0001ED0BB699B6AFB60BB69DB69BA69126A40
:1057F0009A60BB691B6ABA69D2695A60FB685A68C9
:10580000BB6918339A4203D1BB691A6AFB685A60B4
:10581000BB6900229A62FB681B685A1EFB681A600B
:10582000BB69DA6A394B1B689A4203D9BB69DB6AE8
:10583000364A1360BB69DA6A354913469B00134444
:105840009B000B4404331B68BB60BB69BA689A6059
:10585000BB689A68BB69DA60BB689B68BA69043246
:105860005A60BB691A1DBB689A60BB69DA6A134645
:105870009B0013449B00264A1A44BB695A61BB69CA
:10588000DA6A234913469B0013449B000B441B68B0
:10589000591C1F4813469B0013449B000344196086
:1058A000BB69DA6A1B4B1B68DB6A9A427FF65CAF06
:1058B00001237B6258E7174B1B68DA6A14491346C9
:1058C0009B0013449B000B441B68012B01D901234F
:1058D0007B62114B1B68002B07D001237B6204E025
:1058E0000E4B1B6801330D4A13607B6A184628373C
:1058F000BD4680BDF4060020D006002084060020AE
:1059000088060020E4060020EC060020D4060020D3
:10591000FC010020F8010020E0060020DC06002049
:1059200080B485B000AF284B1B68002B03D0274BF9
:1059300001221A6041E0254B00221A60244B1B68AB
:10594000FB6011E0FB68002B0BD14FF0500383F399
:105950001188BFF36F8FBFF34F8F7B6000BF00BF15
:10596000FDE7FB68013BFB601A49FA6813469B00A0
:1059700013449B000B441B68002BE3D0FA681346CA
:105980009B0013449B00134A1344BB60BB685B68D5
:105990005A68BB685A60BB685A68BB6808339A4249
:1059A00003D1BB68DA68BB685A60BB685B68DB68B8
:1059B000094A1360064AFB68136000BF1437BD46EE
:1059C0005DF8047B704700BFF4060020E00600206D
:1059D000D4060020FC010020F801002080B584B02E
:1059E00000AF786039607B68002B0BD14FF050031B
:1059F00083F31188BFF36F8FBFF34F8FFB6000BF3E
:105A000000BFFDE7074B1B68183319467868FEF79F
:105A1000C4FB0121386800F097FC00BF1037BD4679
:105A200080BD00BFF801002080B586B000AFF860EF
:105A3000B9607A60FB68002B0BD14FF0500383F301
:105A40001188BFF36F8FBFF34F8F3B6100BF00BF63
:105A5000FDE7FB685B687B61154B1B687A69DA615F
:105A6000134B1B687A6992681A62114B1A687B693A
:105A70009B6818325A600E4B1B6803F118027B6951
:105A80009A600B4B1B68FA689A62FB681B685A1C89
:105A9000FB681A607B68002B02D04FF0FF33BB60BD
:105AA0007968B86800F050FC00BF1837BD4680BD6B
:105AB000F801002080B48BB000AF78607B68DB68B1
:105AC000DB683B623B6A002B0BD14FF0500383F342
:105AD0001188BFF36F8FBFF34F8FFB6000BF00BF14
